S01B0000436172506C61736D6153746572696C697A65722E7372656368
S113000010C028C0EEC126C007C224C023C022C02D
S113001021C020C01FC0EFC11DC01CC01BC01AC01E
S113002019C011241FBECFEDCDBF10E0A0E6B0E093
S1130030EEE3F4E002C005900D92A236B107D9F7C1
S113004010E0A2E6B0E001C01D92A637B107E1F7C7
S1130050EDD1F3C1D5CFF89481E087BB84E088BBB0
S113006087EC8ABB1BBA88E081B993E097B986E82C
S113007086B913B890BF82E083BF89B7816089BF16
S113008080916200806880936200789408958091E2
S1130090620087FF3AC0369A349BFECF349A24B16B
S11300A045B1B19B05C082E080936700DA9A1BC01A
S11300B030E0942F80E0822B932B835A9240C8F433
S11300C08091620085FFDA9881E08093670080EA7E
S11300D09FE0909371008093700080E49FE190937F
S11300E06F0080936E00809162008068809362004C
S11300F0089510926700DA98809162008068809376
S11301006200109273001092720008958091620050
S113011084FF2EC080916000813019F0823041F557
S113012026C080916C0090916D00019690936D00B3
S113013080936C0020916A0030916B0080916C0078
S113014090916D002817390709F4DF982091680011
S11301503091690080916C0090916D0028173907E7
S113016039F4DF9A10926D0010926C0001C0DA9A93
S11301708091620085FF32C080916700813039F040
S1130180813018F0823051F528C0DA9827C0809168
S113019072009091730001969093730080937200A3
S11301A020917000309171008091720090917300E1
S11301B02817390709F4DA9820916E0030916F00FE
S11301C080917200909173002817390739F4DA9AF4
S11301D0109273001092720001C0DA9A809162004A
S11301E082608093620008958091620081FFAAC0BA
S11301F0809162008D7F8093620086B384708093C7
S113020066009091660080916500981709F090C08F
S1130210809164008F5F80936400809164008132D8
S113022008F490C0109264008091650082FD76C04D
S11302308091620082FD86C0809174009091750067
S1130240019690937500809374008091740090914E
S11302507500853691050CF475C080916200846048
S11302608093620010926300809160008F5F80939E
S1130270600080916000833018F081E0809360001A
S113028080916000813061F0813020F0823009F08B
S113029059C021C08091620080688093620038C098
S11302A08091620080688093620080916200806423
S11302B080936200809162008061809362008091EB
S11302C0620088608093620080B58B7F80BD8BB7AD
S11302D08F7D8BBF0895D898DE98DF98D998C09801
S11302E080916200886080936200809162008F77C1
S11302F080936200809162008F7D80936200809180
S113030062008F7E8093620010926D0010926C00E8
S113031080916200806480936200089580916200FD
S11303208B7F809362001092750010927400089580
S113033080916600809365001092640010927500AD
S11303401092740008958091620086FF20C080910D
S113035062008F7B809362008091620087FF03C0FC
S1130360D89AC09A0895F89480B5846080BD8BB7FC
S113037080628BBF789485B7877E886085BF85B798
S1130380806285BF889585B78F7D85BFF894089571
S11303908091620083FF24C080916200877F8093F4
S11303A06200809160008130D9F4DE9ADF9A8091F6
S11303B062008061809362008BB383608BBBC09AC0
S11303C010926D0010926C0088EC90E090936B009A
S11303D080936A0080E49FE19093690080936800B1
S11303E008951F920F920FB60F9211240F900FBE13
S11303F00F901F9018951F920F920FB60F92112411
S11304008F93809162008160809362008F910F903E
S11304100FBE0F901F9018951F920F920FB60F9258
S113042011240F900FBE0F901F90189514DEDCDE80
S11104302EDE6CDE88DFACDFFACFF894FFCF4F
S105043E0200B6
S9030000FC
