:1000000010C01DC0FFC11BC018C219C018C017C046
:1000100016C015C014C000C212C011C010C00FC05D
:100020000EC011241FBECFEDCDBF10E0A0E6B0E0A2
:1000300001C01D92A537B107E1F709D20FC2E0CF89
:10004000F89481E087BB84E088BB87EC8ABB1BBA4D
:1000500088E081B993E097B986E886B913B890BF74
:1000600082E083BF89B7816089BF8091600080682A
:1000700080936000789408958091600087FF3AC073
:10008000369A349BFECF349A24B145B1B19B05C05A
:1000900082E080936600DA9A1BC030E0942F80E003
:1000A000822B932B835A9240C8F48091600085FF85
:1000B000DA9881E08093660080EA9FE09093700078
:1000C00080936F0080E49FE190936E0080936D00B9
:1000D00080916000806880936000089510926600AF
:1000E000DA988091600080688093600010927200BE
:1000F0001092710008958091600080FF6DC0809122
:1001000060008E7F809360008091600084FF29C032
:1001100080916500813029F580916B0090916C0091
:10012000019690936C0080936B0020916900309150
:100130006A0080916B0090916C002817390709F4D0
:10014000DF98209167003091680080916B0090915A
:100150006C002817390729F4DF9A10926C0010926E
:100160006B008091600085FF32C080916600813015
:1001700039F0813018F0823051F528C0DA9827C064
:10018000809171009091720001969093720080931B
:10019000710020916F0030917000809171009091FA
:1001A00072002817390709F4DA9820916D00309110
:1001B0006E0080917100909172002817390739F410
:1001C000DA9A109272001092710001C0DA9A80914E
:1001D000600082608093600008958091600081FFDC
:1001E000A6C0809160008D7F8093600086B384708C
:1001F000809364009091640080916300981709F0E7
:100200008CC0809162008F5F809362008091620059
:10021000813208F48CC0109262008091630082FDEC
:1002200072C08091600082FD82C0809173009091C5
:100230007400019690937400809373008091730012
:1002400090917400853691050CF471C08091600026
:1002500084608093600010926100809165008F5FE0
:100260008093650080916500833018F081E0809371
:10027000650080916500813051F0813020F082303E
:1002800009F055C01CC080916000806839C0809121
:10029000600080628093600080916000806880933D
:1002A0006000809160008F7B80936000809160008F
:1002B00080618093600080916000886021C0D89840
:1002C000DE98DF98D998C098DA98809160008860AD
:1002D00080936000809160008068809360008091CE
:1002E00060008F7D80936000809160008F7E80939E
:1002F000600010926C0010926B008091600080642E
:10030000809360000895809160008B7F80936000EF
:10031000109274001092730008958091640080938D
:10032000630010926200109274001092730008959E
:100330008091600086FF3CC0809160008F7B80933D
:100340006000D898DE98DF98D998DA98C098F89429
:100350008BB78F7E8BBF84E082BB80E18BBFA8957B
:1003600081B5886181BD81B58E6481BD789485B782
:10037000877E806185BF85B7806285BF889585B798
:100380008F7D85BFF894A89585B7877F85BF81B598
:10039000886181BD11BC8BB78F7E8BBF85B7877F8E
:1003A00085BF81B5886181BD12BA109261007894D1
:1003B00008958091600083FF24C080916000877F52
:1003C00080936000809165008130D9F4DE9ADF9AD5
:1003D000809160008061809360008BB383608BBBF1
:1003E000C09A10926C0010926B0088E290E090939B
:1003F0006A008093690080E49FE190936800809395
:10040000670008951F920F920FB60F9211240F905C
:100410000FBE0F901F9018951F920F920FB60F925C
:1004200011248F93809160008160809360008F9190
:100430000F900FBE0F901F9018951F920F920FB63E
:100440000F9211240F900FBE0F901F901895F8DD9A
:10045000C4DE12DE50DE6CDFACDFFACFF894FFCFE3
:00000001FF
